{
    "contractName": "Lottery",
    "abi": [
        {
            "inputs": [
                {
                    "internalType": "address",
                    "name": "_priceFeedAddress",
                    "type": "address"
                },
                {
                    "internalType": "address",
                    "name": "_vrfCoordinator",
                    "type": "address"
                },
                {
                    "internalType": "address",
                    "name": "_linkToken",
                    "type": "address"
                },
                {
                    "internalType": "uint256",
                    "name": "_fee",
                    "type": "uint256"
                },
                {
                    "internalType": "bytes32",
                    "name": "_keyHash",
                    "type": "bytes32"
                }
            ],
            "stateMutability": "nonpayable",
            "type": "constructor"
        },
        {
            "anonymous": false,
            "inputs": [
                {
                    "indexed": true,
                    "internalType": "address",
                    "name": "previousOwner",
                    "type": "address"
                },
                {
                    "indexed": true,
                    "internalType": "address",
                    "name": "newOwner",
                    "type": "address"
                }
            ],
            "name": "OwnershipTransferred",
            "type": "event"
        },
        {
            "inputs": [],
            "name": "endLottery",
            "outputs": [],
            "stateMutability": "nonpayable",
            "type": "function"
        },
        {
            "inputs": [],
            "name": "enter",
            "outputs": [],
            "stateMutability": "payable",
            "type": "function"
        },
        {
            "inputs": [],
            "name": "fee",
            "outputs": [
                {
                    "internalType": "uint256",
                    "name": "",
                    "type": "uint256"
                }
            ],
            "stateMutability": "view",
            "type": "function"
        },
        {
            "inputs": [],
            "name": "getEntranceFee",
            "outputs": [
                {
                    "internalType": "uint256",
                    "name": "",
                    "type": "uint256"
                }
            ],
            "stateMutability": "view",
            "type": "function"
        },
        {
            "inputs": [],
            "name": "keyHash",
            "outputs": [
                {
                    "internalType": "bytes32",
                    "name": "",
                    "type": "bytes32"
                }
            ],
            "stateMutability": "view",
            "type": "function"
        },
        {
            "inputs": [],
            "name": "lottery_state",
            "outputs": [
                {
                    "internalType": "enum Lottery.LOTTERY_STATE",
                    "name": "",
                    "type": "uint8"
                }
            ],
            "stateMutability": "view",
            "type": "function"
        },
        {
            "inputs": [],
            "name": "owner",
            "outputs": [
                {
                    "internalType": "address",
                    "name": "",
                    "type": "address"
                }
            ],
            "stateMutability": "view",
            "type": "function"
        },
        {
            "inputs": [
                {
                    "internalType": "uint256",
                    "name": "",
                    "type": "uint256"
                }
            ],
            "name": "players",
            "outputs": [
                {
                    "internalType": "address payable",
                    "name": "",
                    "type": "address"
                }
            ],
            "stateMutability": "view",
            "type": "function"
        },
        {
            "inputs": [],
            "name": "randomness",
            "outputs": [
                {
                    "internalType": "uint256",
                    "name": "",
                    "type": "uint256"
                }
            ],
            "stateMutability": "view",
            "type": "function"
        },
        {
            "inputs": [
                {
                    "internalType": "bytes32",
                    "name": "requestId",
                    "type": "bytes32"
                },
                {
                    "internalType": "uint256",
                    "name": "randomness",
                    "type": "uint256"
                }
            ],
            "name": "rawFulfillRandomness",
            "outputs": [],
            "stateMutability": "nonpayable",
            "type": "function"
        },
        {
            "inputs": [],
            "name": "recentWinner",
            "outputs": [
                {
                    "internalType": "address payable",
                    "name": "",
                    "type": "address"
                }
            ],
            "stateMutability": "view",
            "type": "function"
        },
        {
            "inputs": [],
            "name": "renounceOwnership",
            "outputs": [],
            "stateMutability": "nonpayable",
            "type": "function"
        },
        {
            "inputs": [],
            "name": "startLoterry",
            "outputs": [],
            "stateMutability": "nonpayable",
            "type": "function"
        },
        {
            "inputs": [
                {
                    "internalType": "address",
                    "name": "newOwner",
                    "type": "address"
                }
            ],
            "name": "transferOwnership",
            "outputs": [],
            "stateMutability": "nonpayable",
            "type": "function"
        },
        {
            "inputs": [],
            "name": "usdEnterFee",
            "outputs": [
                {
                    "internalType": "uint256",
                    "name": "",
                    "type": "uint256"
                }
            ],
            "stateMutability": "view",
            "type": "function"
        }
    ],
    "bytecode": "60c060405234801561001057600080fd5b50604051610e83380380610e83833981810160405260a081101561003357600080fd5b508051602082015160408301516060808501516080958601516001600160601b031985841b811660a0529284901b9092169095529293919290919060006100816001600160e01b0361011916565b600180546001600160a01b0319166001600160a01b038316908117909155604051919250906000907f8be0079c531659141344cd1fd0a4f28419497f9722a3daafe3b4186f6b6457e0908290a3506802b5e3af16b1880000600355600680546001600160a01b0319166001600160a01b038716179055600980546001919060ff1916828002179055506005556004555061011d915050565b3390565b60805160601c60a05160601c610d3861014b600039806104d852806108825250806108535250610d386000f3fe6080604052600436106100e85760003560e01c80638da5cb5b1161008a578063e97dcb6211610059578063e97dcb6214610243578063f2fde38b1461024b578063f71d96cb1461027e578063ff315e9d146102a8576100e8565b80638da5cb5b146101d457806394985ddd146101e9578063d6588bd314610219578063ddca3f431461022e576100e8565b80634f8c70cf116100c65780634f8c70cf1461014057806361728f3914610171578063715018a614610186578063814479991461019b576100e8565b806309bc33a7146100ed5780631593a8c714610114578063360131891461012b575b600080fd5b3480156100f957600080fd5b506101026102bd565b60408051918252519081900360200190f35b34801561012057600080fd5b5061012961036c565b005b34801561013757600080fd5b506101026103ee565b34801561014c57600080fd5b506101556103f4565b604080516001600160a01b039092168252519081900360200190f35b34801561017d57600080fd5b50610102610403565b34801561019257600080fd5b50610129610409565b3480156101a757600080fd5b506101b06104b5565b604051808260028111156101c057fe5b60ff16815260200191505060405180910390f35b3480156101e057600080fd5b506101556104be565b3480156101f557600080fd5b506101296004803603604081101561020c57600080fd5b50803590602001356104cd565b34801561022557600080fd5b50610129610554565b34801561023a57600080fd5b50610102610627565b61012961062d565b34801561025757600080fd5b506101296004803603602081101561026e57600080fd5b50356001600160a01b031661071b565b34801561028a57600080fd5b50610155600480360360208110156102a157600080fd5b503561081e565b3480156102b457600080fd5b50610102610845565b600080600660009054906101000a90046001600160a01b03166001600160a01b031663feaf968c6040518163ffffffff1660e01b815260040160a06040518083038186803b15801561030e57600080fd5b505afa158015610322573d6000803e3d6000fd5b505050506040513d60a081101561033857600080fd5b50602001516003549091506402540be4008202906000908290670de0b6b3a7640000028161036257fe5b0493505050505b90565b61037461084b565b6001600160a01b03166103856104be565b6001600160a01b0316146103ce576040805162461bcd60e51b81526020600482018190526024820152600080516020610ce3833981519152604482015290519081900360640190fd5b6009805460ff191690556005546004546000916103ea9161084f565b5050565b60085481565b6007546001600160a01b031681565b60055481565b61041161084b565b6001600160a01b03166104226104be565b6001600160a01b03161461046b576040805162461bcd60e51b81526020600482018190526024820152600080516020610ce3833981519152604482015290519081900360640190fd5b6001546040516000916001600160a01b0316907f8be0079c531659141344cd1fd0a4f28419497f9722a3daafe3b4186f6b6457e0908390a3600180546001600160a01b0319169055565b60095460ff1681565b6001546001600160a01b031690565b336001600160a01b037f0000000000000000000000000000000000000000000000000000000000000000161461054a576040805162461bcd60e51b815260206004820152601f60248201527f4f6e6c7920565246436f6f7264696e61746f722063616e2066756c66696c6c00604482015290519081900360640190fd5b6103ea8282610a11565b61055c61084b565b6001600160a01b031661056d6104be565b6001600160a01b0316146105b6576040805162461bcd60e51b81526020600482018190526024820152600080516020610ce3833981519152604482015290519081900360640190fd5b600160095460ff1660028111156105c957fe5b1461061b576040805162461bcd60e51b815260206004820152601860248201527f4c6f747465727920697320616c7265616479206f70656e210000000000000000604482015290519081900360640190fd5b6009805460ff19169055565b60045481565b600060095460ff16600281111561064057fe5b14610689576040805162461bcd60e51b81526020600482015260146024820152734c6f7474657279206973206e6f74206f70656e2160601b604482015290519081900360640190fd5b6106916102bd565b3410156106d7576040805162461bcd60e51b815260206004820152600f60248201526e4e6f7420656e6f756768204554482160881b604482015290519081900360640190fd5b600280546001810182556000919091527f405787fa12a823e0f2b7631cc41b3ba8828b3321ca811111fa75cd3aa3bb5ace0180546001600160a01b03191633179055565b61072361084b565b6001600160a01b03166107346104be565b6001600160a01b03161461077d576040805162461bcd60e51b81526020600482018190526024820152600080516020610ce3833981519152604482015290519081900360640190fd5b6001600160a01b0381166107c25760405162461bcd60e51b8152600401808060200182810382526026815260200180610cbd6026913960400191505060405180910390fd5b6001546040516001600160a01b038084169216907f8be0079c531659141344cd1fd0a4f28419497f9722a3daafe3b4186f6b6457e090600090a3600180546001600160a01b0319166001600160a01b0392909216919091179055565b6002818154811061082b57fe5b6000918252602090912001546001600160a01b0316905081565b60035481565b3390565b60007f00000000000000000000000000000000000000000000000000000000000000006001600160a01b0316634000aea07f00000000000000000000000000000000000000000000000000000000000000008486600060405160200180838152602001828152602001925050506040516020818303038152906040526040518463ffffffff1660e01b815260040180846001600160a01b03166001600160a01b0316815260200183815260200180602001828103825283818151815260200191508051906020019080838360005b8381101561093557818101518382015260200161091d565b50505050905090810190601f1680156109625780820380516001836020036101000a031916815260200191505b50945050505050602060405180830381600087803b15801561098357600080fd5b505af1158015610997573d6000803e3d6000fd5b505050506040513d60208110156109ad57600080fd5b50506000838152602081905260408120546109cd90859083903090610b5f565b6000858152602081905260409020549091506109f090600163ffffffff610ba616565b600085815260208190526040902055610a098482610c07565b949350505050565b600260095460ff166002811115610a2457fe5b14610a6c576040805162461bcd60e51b81526020600482015260136024820152722637ba3a32b93c9034b9903737ba1037b832b760691b604482015290519081900360640190fd5b60008111610ab8576040805162461bcd60e51b815260206004820152601460248201527314985b991bdb5b995cdcc81b9bdd08199bdd5b9960621b604482015290519081900360640190fd5b6002546000908281610ac657fe5b06905060028181548110610ad657fe5b6000918252602082200154600780546001600160a01b0319166001600160a01b0392831617908190556040519116914780156108fc02929091818181858888f19350505050158015610b2c573d6000803e3d6000fd5b506040805160008152602081019182905251610b4a91600291610c33565b50506009805460ff1916600117905560085550565b60408051602080820196909652808201949094526001600160a01b039290921660608401526080808401919091528151808403909101815260a09092019052805191012090565b600082820183811015610c00576040805162461bcd60e51b815260206004820152601b60248201527f536166654d6174683a206164646974696f6e206f766572666c6f770000000000604482015290519081900360640190fd5b9392505050565b604080516020808201949094528082019290925280518083038201815260609092019052805191012090565b828054828255906000526020600020908101928215610c88579160200282015b82811115610c8857825182546001600160a01b0319166001600160a01b03909116178255602090920191600190910190610c53565b50610c94929150610c98565b5090565b61036991905b80821115610c945780546001600160a01b0319168155600101610c9e56fe4f776e61626c653a206e6577206f776e657220697320746865207a65726f20616464726573734f776e61626c653a2063616c6c6572206973206e6f7420746865206f776e6572a26469706673582212206a72c97606e729c7aab327cfcaabb8097f7f02228b638c535a85e83c4e5eae1564736f6c63430006060033",
    "sourcePath": "/root/smartcontract-lottery/contracts/Loterry.sol",
    "compiler": {
        "name": "solc",
        "version": "0.6.6+commit.6c089d02"
    },
    "functionHashes": {
        "endLottery()": "1593a8c7",
        "enter()": "e97dcb62",
        "fee()": "ddca3f43",
        "getEntranceFee()": "09bc33a7",
        "keyHash()": "61728f39",
        "lottery_state()": "81447999",
        "owner()": "8da5cb5b",
        "players(uint256)": "f71d96cb",
        "randomness()": "36013189",
        "rawFulfillRandomness(bytes32,uint256)": "94985ddd",
        "recentWinner()": "4f8c70cf",
        "renounceOwnership()": "715018a6",
        "startLoterry()": "d6588bd3",
        "transferOwnership(address)": "f2fde38b",
        "usdEnterFee()": "ff315e9d"
    },
    "gasEstimates": {
        "creation": {
            "codeDepositCost": "676800",
            "executionCost": "infinite",
            "totalCost": "infinite"
        },
        "external": {
            "endLottery()": "infinite",
            "enter()": "infinite",
            "fee()": "1087",
            "getEntranceFee()": "infinite",
            "keyHash()": "1043",
            "lottery_state()": "1132",
            "owner()": "1060",
            "players(uint256)": "2036",
            "randomness()": "1066",
            "rawFulfillRandomness(bytes32,uint256)": "infinite",
            "recentWinner()": "1060",
            "renounceOwnership()": "infinite",
            "startLoterry()": "infinite",
            "transferOwnership(address)": "infinite",
            "usdEnterFee()": "1086"
        },
        "internal": {
            "fulfillRandomness(bytes32,uint256)": "infinite"
        }
    }
}